{
  "_format": "hh-sol-artifact-1",
  "contractName": "Crowdfund",
  "sourceName": "contracts/Crowdfund.sol",
  "abi": [
    {
      "inputs": [],
      "stateMutability": "nonpayable",
      "type": "constructor"
    },
    {
      "anonymous": false,
      "inputs": [],
      "name": "Contributed",
      "type": "event"
    },
    {
      "anonymous": false,
      "inputs": [],
      "name": "Extract",
      "type": "event"
    },
    {
      "inputs": [
        {
          "internalType": "string",
          "name": "_title",
          "type": "string"
        },
        {
          "internalType": "string",
          "name": "_des",
          "type": "string"
        },
        {
          "internalType": "address payable",
          "name": "_owner",
          "type": "address"
        },
        {
          "internalType": "uint256",
          "name": "_minimumContrib",
          "type": "uint256"
        },
        {
          "internalType": "uint256",
          "name": "_target",
          "type": "uint256"
        },
        {
          "internalType": "uint256",
          "name": "_deadline",
          "type": "uint256"
        },
        {
          "internalType": "string",
          "name": "_state",
          "type": "string"
        },
        {
          "internalType": "uint256",
          "name": "_noContributors",
          "type": "uint256"
        }
      ],
      "name": "addProject",
      "outputs": [],
      "stateMutability": "nonpayable",
      "type": "function"
    },
    {
      "inputs": [
        {
          "internalType": "uint256",
          "name": "id",
          "type": "uint256"
        },
        {
          "internalType": "address payable",
          "name": "_to",
          "type": "address"
        }
      ],
      "name": "contribute",
      "outputs": [],
      "stateMutability": "payable",
      "type": "function"
    },
    {
      "inputs": [
        {
          "internalType": "uint256",
          "name": "id",
          "type": "uint256"
        }
      ],
      "name": "extract",
      "outputs": [],
      "stateMutability": "payable",
      "type": "function"
    },
    {
      "inputs": [],
      "name": "owner",
      "outputs": [
        {
          "internalType": "address",
          "name": "",
          "type": "address"
        }
      ],
      "stateMutability": "view",
      "type": "function"
    },
    {
      "inputs": [
        {
          "internalType": "uint256",
          "name": "",
          "type": "uint256"
        }
      ],
      "name": "projects",
      "outputs": [
        {
          "internalType": "string",
          "name": "ProjectTitle",
          "type": "string"
        },
        {
          "internalType": "string",
          "name": "description",
          "type": "string"
        },
        {
          "internalType": "address payable",
          "name": "owner",
          "type": "address"
        },
        {
          "internalType": "uint256",
          "name": "minimumContribution",
          "type": "uint256"
        },
        {
          "internalType": "uint256",
          "name": "targetContribution",
          "type": "uint256"
        },
        {
          "internalType": "uint256",
          "name": "deadline",
          "type": "uint256"
        },
        {
          "internalType": "uint256",
          "name": "id",
          "type": "uint256"
        },
        {
          "internalType": "string",
          "name": "state",
          "type": "string"
        },
        {
          "internalType": "uint256",
          "name": "currentDonations",
          "type": "uint256"
        },
        {
          "internalType": "uint256",
          "name": "noContributors",
          "type": "uint256"
        }
      ],
      "stateMutability": "view",
      "type": "function"
    },
    {
      "inputs": [],
      "name": "returnProjects",
      "outputs": [
        {
          "components": [
            {
              "internalType": "string",
              "name": "ProjectTitle",
              "type": "string"
            },
            {
              "internalType": "string",
              "name": "description",
              "type": "string"
            },
            {
              "internalType": "address payable",
              "name": "owner",
              "type": "address"
            },
            {
              "internalType": "uint256",
              "name": "minimumContribution",
              "type": "uint256"
            },
            {
              "internalType": "uint256",
              "name": "targetContribution",
              "type": "uint256"
            },
            {
              "internalType": "uint256",
              "name": "deadline",
              "type": "uint256"
            },
            {
              "internalType": "uint256",
              "name": "id",
              "type": "uint256"
            },
            {
              "internalType": "string",
              "name": "state",
              "type": "string"
            },
            {
              "internalType": "uint256",
              "name": "currentDonations",
              "type": "uint256"
            },
            {
              "internalType": "uint256",
              "name": "noContributors",
              "type": "uint256"
            }
          ],
          "internalType": "struct Project[]",
          "name": "",
          "type": "tuple[]"
        }
      ],
      "stateMutability": "view",
      "type": "function"
    },
    {
      "inputs": [
        {
          "components": [
            {
              "internalType": "string",
              "name": "ProjectTitle",
              "type": "string"
            },
            {
              "internalType": "string",
              "name": "description",
              "type": "string"
            },
            {
              "internalType": "address payable",
              "name": "owner",
              "type": "address"
            },
            {
              "internalType": "uint256",
              "name": "minimumContribution",
              "type": "uint256"
            },
            {
              "internalType": "uint256",
              "name": "targetContribution",
              "type": "uint256"
            },
            {
              "internalType": "uint256",
              "name": "deadline",
              "type": "uint256"
            },
            {
              "internalType": "uint256",
              "name": "id",
              "type": "uint256"
            },
            {
              "internalType": "string",
              "name": "state",
              "type": "string"
            },
            {
              "internalType": "uint256",
              "name": "currentDonations",
              "type": "uint256"
            },
            {
              "internalType": "uint256",
              "name": "noContributors",
              "type": "uint256"
            }
          ],
          "internalType": "struct Project",
          "name": "pr",
          "type": "tuple"
        },
        {
          "internalType": "string",
          "name": "_title",
          "type": "string"
        },
        {
          "internalType": "string",
          "name": "_des",
          "type": "string"
        },
        {
          "internalType": "address payable",
          "name": "_owner",
          "type": "address"
        },
        {
          "internalType": "uint256",
          "name": "_minimumContrib",
          "type": "uint256"
        },
        {
          "internalType": "uint256",
          "name": "_target",
          "type": "uint256"
        },
        {
          "internalType": "uint256",
          "name": "_deadline",
          "type": "uint256"
        },
        {
          "internalType": "uint256",
          "name": "_id",
          "type": "uint256"
        },
        {
          "internalType": "string",
          "name": "_state",
          "type": "string"
        },
        {
          "internalType": "uint256",
          "name": "_noContributors",
          "type": "uint256"
        }
      ],
      "name": "setDetail",
      "outputs": [],
      "stateMutability": "pure",
      "type": "function"
    },
    {
      "stateMutability": "payable",
      "type": "receive"
    }
  ],
  "bytecode": "0x608060405234801561001057600080fd5b5033600160006101000a81548173ffffffffffffffffffffffffffffffffffffffff021916908373ffffffffffffffffffffffffffffffffffffffff160217905550611c6b806100616000396000f3fe6080604052600436106100745760003560e01c806385b397821161004e57806385b397821461010d5780638da5cb5b146101295780639fd1f60114610154578063ba91d1df1461017d5761007b565b8063107046bd1461008057806329957db0146100c657806360b0b0f0146100f15761007b565b3661007b57005b600080fd5b34801561008c57600080fd5b506100a760048036038101906100a29190610d1f565b6101a6565b6040516100bd9a99989796959493929190610e2c565b60405180910390f35b3480156100d257600080fd5b506100db6103c2565b6040516100e891906110ef565b60405180910390f35b61010b6004803603810190610106919061113d565b61066a565b005b61012760048036038101906101229190610d1f565b610828565b005b34801561013557600080fd5b5061013e610a84565b60405161014b919061119e565b60405180910390f35b34801561016057600080fd5b5061017b600480360381019061017691906112ee565b610aaa565b005b34801561018957600080fd5b506101a4600480360381019061019f919061154c565b610bce565b005b600081815481106101b657600080fd5b90600052602060002090600a02016000915090508060000180546101d9906116ca565b80601f0160208091040260200160405190810160405280929190818152602001828054610205906116ca565b80156102525780601f1061022757610100808354040283529160200191610252565b820191906000526020600020905b81548152906001019060200180831161023557829003601f168201915b505050505090806001018054610267906116ca565b80601f0160208091040260200160405190810160405280929190818152602001828054610293906116ca565b80156102e05780601f106102b5576101008083540402835291602001916102e0565b820191906000526020600020905b8154815290600101906020018083116102c357829003601f168201915b5050505050908060020160009054906101000a900473ffffffffffffffffffffffffffffffffffffffff1690806003015490806004015490806005015490806006015490806007018054610333906116ca565b80601f016020809104026020016040519081016040528092919081815260200182805461035f906116ca565b80156103ac5780601f10610381576101008083540402835291602001916103ac565b820191906000526020600020905b81548152906001019060200180831161038f57829003601f168201915b505050505090806008015490806009015490508a565b60606000805480602002602001604051908101604052809291908181526020016000905b8282101561066157838290600052602060002090600a02016040518061014001604052908160008201805461041a906116ca565b80601f0160208091040260200160405190810160405280929190818152602001828054610446906116ca565b80156104935780601f1061046857610100808354040283529160200191610493565b820191906000526020600020905b81548152906001019060200180831161047657829003601f168201915b505050505081526020016001820180546104ac906116ca565b80601f01602080910402602001604051908101604052809291908181526020018280546104d8906116ca565b80156105255780601f106104fa57610100808354040283529160200191610525565b820191906000526020600020905b81548152906001019060200180831161050857829003601f168201915b505050505081526020016002820160009054906101000a900473ffffffffffffffffffffffffffffffffffffffff1673ffffffffffffffffffffffffffffffffffffffff1673ffffffffffffffffffffffffffffffffffffffff168152602001600382015481526020016004820154815260200160058201548152602001600682015481526020016007820180546105bc906116ca565b80601f01602080910402602001604051908101604052809291908181526020018280546105e8906116ca565b80156106355780601f1061060a57610100808354040283529160200191610635565b820191906000526020600020905b81548152906001019060200180831161061857829003601f168201915b5050505050815260200160088201548152602001600982015481525050815260200190600101906103e6565b50505050905090565b6000828154811061067e5761067d6116fb565b5b90600052602060002090600a0201600301543410156106d2576040517f08c379a00000000000000000000000000000000000000000000000000000000081526004016106c990611776565b60405180910390fd5b60008173ffffffffffffffffffffffffffffffffffffffff16346040516106f8906117c7565b60006040518083038185875af1925050503d8060008114610735576040519150601f19603f3d011682016040523d82523d6000602084013e61073a565b606091505b505090508061077e576040517f08c379a000000000000000000000000000000000000000000000000000000000815260040161077590611828565b60405180910390fd5b3460008481548110610793576107926116fb565b5b90600052602060002090600a020160080160008282546107b39190611877565b925050819055506001600084815481106107d0576107cf6116fb565b5b90600052602060002090600a020160090160008282546107f09190611877565b925050819055507fe03ac72194d8a130766e20a1368be8f057bcc3955b82fb46de9afed82e8650d760405160405180910390a1505050565b6000818154811061083c5761083b6116fb565b5b90600052602060002090600a02016003015460008281548110610862576108616116fb565b5b90600052602060002090600a020160080154116108b4576040517f08c379a00000000000000000000000000000000000000000000000000000000081526004016108ab906118f7565b60405180910390fd5b60008082815481106108c9576108c86116fb565b5b90600052602060002090600a020160020160009054906101000a900473ffffffffffffffffffffffffffffffffffffffff1673ffffffffffffffffffffffffffffffffffffffff1660008381548110610925576109246116fb565b5b90600052602060002090600a020160080154604051610943906117c7565b60006040518083038185875af1925050503d8060008114610980576040519150601f19603f3d011682016040523d82523d6000602084013e610985565b606091505b50509050806109c9576040517f08c379a00000000000000000000000000000000000000000000000000000000081526004016109c090611963565b60405180910390fd5b600082815481106109dd576109dc6116fb565b5b90600052602060002090600a02016008015460008381548110610a0357610a026116fb565b5b90600052602060002090600a02016004016000828254610a239190611983565b925050819055506000808381548110610a3f57610a3e6116fb565b5b90600052602060002090600a0201600801819055507fbb3ce85544e3d7e997a27b549b79f9c7c0fe7aa3b05928cb9bb60e98e2c7934660405160405180910390a15050565b600160009054906101000a900473ffffffffffffffffffffffffffffffffffffffff1681565b600080805490509050610abb610c6c565b610acd818b8b8b8b8b8b898c8c610bce565b60008190806001815401808255809150506001900390600052602060002090600a02016000909190919091506000820151816000019081610b0e9190611b63565b506020820151816001019081610b249190611b63565b5060408201518160020160006101000a81548173ffffffffffffffffffffffffffffffffffffffff021916908373ffffffffffffffffffffffffffffffffffffffff160217905550606082015181600301556080820151816004015560a0820151816005015560c0820151816006015560e0820151816007019081610ba99190611b63565b5061010082015181600801556101208201518160090155505050505050505050505050565b888a60000181905250878a60200181905250868a6040019073ffffffffffffffffffffffffffffffffffffffff16908173ffffffffffffffffffffffffffffffffffffffff1681525050858a6060018181525050848a6080018181525050838a60a0018181525050828a60c0018181525050818a60e0018190525060008a610100018181525050808a61012001818152505050505050505050505050565b6040518061014001604052806060815260200160608152602001600073ffffffffffffffffffffffffffffffffffffffff168152602001600081526020016000815260200160008152602001600081526020016060815260200160008152602001600081525090565b6000604051905090565b600080fd5b600080fd5b6000819050919050565b610cfc81610ce9565b8114610d0757600080fd5b50565b600081359050610d1981610cf3565b92915050565b600060208284031215610d3557610d34610cdf565b5b6000610d4384828501610d0a565b91505092915050565b600081519050919050565b600082825260208201905092915050565b60005b83811015610d86578082015181840152602081019050610d6b565b60008484015250505050565b6000601f19601f8301169050919050565b6000610dae82610d4c565b610db88185610d57565b9350610dc8818560208601610d68565b610dd181610d92565b840191505092915050565b600073ffffffffffffffffffffffffffffffffffffffff82169050919050565b6000610e0782610ddc565b9050919050565b610e1781610dfc565b82525050565b610e2681610ce9565b82525050565b6000610140820190508181036000830152610e47818d610da3565b90508181036020830152610e5b818c610da3565b9050610e6a604083018b610e0e565b610e77606083018a610e1d565b610e846080830189610e1d565b610e9160a0830188610e1d565b610e9e60c0830187610e1d565b81810360e0830152610eb08186610da3565b9050610ec0610100830185610e1d565b610ece610120830184610e1d565b9b9a5050505050505050505050565b600081519050919050565b600082825260208201905092915050565b6000819050602082019050919050565b600082825260208201905092915050565b6000610f2582610d4c565b610f2f8185610f09565b9350610f3f818560208601610d68565b610f4881610d92565b840191505092915050565b610f5c81610dfc565b82525050565b610f6b81610ce9565b82525050565b6000610140830160008301518482036000860152610f8f8282610f1a565b91505060208301518482036020860152610fa98282610f1a565b9150506040830151610fbe6040860182610f53565b506060830151610fd16060860182610f62565b506080830151610fe46080860182610f62565b5060a0830151610ff760a0860182610f62565b5060c083015161100a60c0860182610f62565b5060e083015184820360e08601526110228282610f1a565b915050610100830151611039610100860182610f62565b5061012083015161104e610120860182610f62565b508091505092915050565b60006110658383610f71565b905092915050565b6000602082019050919050565b600061108582610edd565b61108f8185610ee8565b9350836020820285016110a185610ef9565b8060005b858110156110dd57848403895281516110be8582611059565b94506110c98361106d565b925060208a019950506001810190506110a5565b50829750879550505050505092915050565b60006020820190508181036000830152611109818461107a565b905092915050565b61111a81610dfc565b811461112557600080fd5b50565b60008135905061113781611111565b92915050565b6000806040838503121561115457611153610cdf565b5b600061116285828601610d0a565b925050602061117385828601611128565b9150509250929050565b600061118882610ddc565b9050919050565b6111988161117d565b82525050565b60006020820190506111b3600083018461118f565b92915050565b600080fd5b600080fd5b7f4e487b7100000000000000000000000000000000000000000000000000000000600052604160045260246000fd5b6111fb82610d92565b810181811067ffffffffffffffff8211171561121a576112196111c3565b5b80604052505050565b600061122d610cd5565b905061123982826111f2565b919050565b600067ffffffffffffffff821115611259576112586111c3565b5b61126282610d92565b9050602081019050919050565b82818337600083830152505050565b600061129161128c8461123e565b611223565b9050828152602081018484840111156112ad576112ac6111be565b5b6112b884828561126f565b509392505050565b600082601f8301126112d5576112d46111b9565b5b81356112e584826020860161127e565b91505092915050565b600080600080600080600080610100898b03121561130f5761130e610cdf565b5b600089013567ffffffffffffffff81111561132d5761132c610ce4565b5b6113398b828c016112c0565b985050602089013567ffffffffffffffff81111561135a57611359610ce4565b5b6113668b828c016112c0565b97505060406113778b828c01611128565b96505060606113888b828c01610d0a565b95505060806113998b828c01610d0a565b94505060a06113aa8b828c01610d0a565b93505060c089013567ffffffffffffffff8111156113cb576113ca610ce4565b5b6113d78b828c016112c0565b92505060e06113e88b828c01610d0a565b9150509295985092959890939650565b600080fd5b600080fd5b60006101408284031215611419576114186113f8565b5b611424610140611223565b9050600082013567ffffffffffffffff811115611444576114436113fd565b5b611450848285016112c0565b600083015250602082013567ffffffffffffffff811115611474576114736113fd565b5b611480848285016112c0565b602083015250604061149484828501611128565b60408301525060606114a884828501610d0a565b60608301525060806114bc84828501610d0a565b60808301525060a06114d084828501610d0a565b60a08301525060c06114e484828501610d0a565b60c08301525060e082013567ffffffffffffffff811115611508576115076113fd565b5b611514848285016112c0565b60e08301525061010061152984828501610d0a565b6101008301525061012061153f84828501610d0a565b6101208301525092915050565b6000806000806000806000806000806101408b8d0312156115705761156f610cdf565b5b60008b013567ffffffffffffffff81111561158e5761158d610ce4565b5b61159a8d828e01611402565b9a505060208b013567ffffffffffffffff8111156115bb576115ba610ce4565b5b6115c78d828e016112c0565b99505060408b013567ffffffffffffffff8111156115e8576115e7610ce4565b5b6115f48d828e016112c0565b98505060606116058d828e01611128565b97505060806116168d828e01610d0a565b96505060a06116278d828e01610d0a565b95505060c06116388d828e01610d0a565b94505060e06116498d828e01610d0a565b9350506101008b013567ffffffffffffffff81111561166b5761166a610ce4565b5b6116778d828e016112c0565b9250506101206116898d828e01610d0a565b9150509295989b9194979a5092959850565b7f4e487b7100000000000000000000000000000000000000000000000000000000600052602260045260246000fd5b600060028204905060018216806116e257607f821691505b6020821081036116f5576116f461169b565b5b50919050565b7f4e487b7100000000000000000000000000000000000000000000000000000000600052603260045260246000fd5b7f416d6f756e7420746f6f206c6f77202020202100000000000000000000000000600082015250565b6000611760601383610d57565b915061176b8261172a565b602082019050919050565b6000602082019050818103600083015261178f81611753565b9050919050565b600081905092915050565b50565b60006117b1600083611796565b91506117bc826117a1565b600082019050919050565b60006117d2826117a4565b9150819050919050565b7f4661696c656420746f2073656e64204574686572000000000000000000000000600082015250565b6000611812601483610d57565b915061181d826117dc565b602082019050919050565b6000602082019050818103600083015261184181611805565b9050919050565b7f4e487b7100000000000000000000000000000000000000000000000000000000600052601160045260246000fd5b600061188282610ce9565b915061188d83610ce9565b92508282019050808211156118a5576118a4611848565b5b92915050565b7f416d6f756e74206e6f7420656e6f756768200000000000000000000000000000600082015250565b60006118e1601283610d57565b91506118ec826118ab565b602082019050919050565b60006020820190508181036000830152611910816118d4565b9050919050565b7f4661696c656420746f2073656e74204574686572000000000000000000000000600082015250565b600061194d601483610d57565b915061195882611917565b602082019050919050565b6000602082019050818103600083015261197c81611940565b9050919050565b600061198e82610ce9565b915061199983610ce9565b92508282039050818111156119b1576119b0611848565b5b92915050565b60008190508160005260206000209050919050565b60006020601f8301049050919050565b600082821b905092915050565b600060088302611a197fffffffffffffffffffffffffffffffffffffffffffffffffffffffffffffffff826119dc565b611a2386836119dc565b95508019841693508086168417925050509392505050565b6000819050919050565b6000611a60611a5b611a5684610ce9565b611a3b565b610ce9565b9050919050565b6000819050919050565b611a7a83611a45565b611a8e611a8682611a67565b8484546119e9565b825550505050565b600090565b611aa3611a96565b611aae818484611a71565b505050565b5b81811015611ad257611ac7600082611a9b565b600181019050611ab4565b5050565b601f821115611b1757611ae8816119b7565b611af1846119cc565b81016020851015611b00578190505b611b14611b0c856119cc565b830182611ab3565b50505b505050565b600082821c905092915050565b6000611b3a60001984600802611b1c565b1980831691505092915050565b6000611b538383611b29565b9150826002028217905092915050565b611b6c82610d4c565b67ffffffffffffffff811115611b8557611b846111c3565b5b611b8f82546116ca565b611b9a828285611ad6565b600060209050601f831160018114611bcd5760008415611bbb578287015190505b611bc58582611b47565b865550611c2d565b601f198416611bdb866119b7565b60005b82811015611c0357848901518255600182019150602085019450602081019050611bde565b86831015611c205784890151611c1c601f891682611b29565b8355505b6001600288020188555050505b50505050505056fea2646970667358221220f810901234695fc6782f9f2e106149d943e576464997c05e3428bd852963d92864736f6c63430008110033",
  "linkReferences": {},
  "deployedLinkReferences": {}
}