{
  "_format": "hh-sol-artifact-1",
  "contractName": "Crowdfund",
  "sourceName": "contracts/Crowdfund.sol",
  "abi": [
    {
      "inputs": [],
      "stateMutability": "nonpayable",
      "type": "constructor"
    },
    {
      "anonymous": false,
      "inputs": [],
      "name": "Contributed",
      "type": "event"
    },
    {
      "inputs": [
        {
          "internalType": "string",
          "name": "_title",
          "type": "string"
        },
        {
          "internalType": "string",
          "name": "_des",
          "type": "string"
        },
        {
          "internalType": "address payable",
          "name": "_owner",
          "type": "address"
        },
        {
          "internalType": "uint256",
          "name": "_minimumContrib",
          "type": "uint256"
        },
        {
          "internalType": "uint256",
          "name": "_target",
          "type": "uint256"
        },
        {
          "internalType": "uint256",
          "name": "_deadline",
          "type": "uint256"
        },
        {
          "internalType": "string",
          "name": "_state",
          "type": "string"
        },
        {
          "internalType": "uint256",
          "name": "_noContributors",
          "type": "uint256"
        }
      ],
      "name": "addProject",
      "outputs": [],
      "stateMutability": "nonpayable",
      "type": "function"
    },
    {
      "inputs": [
        {
          "internalType": "uint256",
          "name": "id",
          "type": "uint256"
        },
        {
          "internalType": "address payable",
          "name": "_to",
          "type": "address"
        }
      ],
      "name": "contribute",
      "outputs": [],
      "stateMutability": "payable",
      "type": "function"
    },
    {
      "inputs": [],
      "name": "owner",
      "outputs": [
        {
          "internalType": "address",
          "name": "",
          "type": "address"
        }
      ],
      "stateMutability": "view",
      "type": "function"
    },
    {
      "inputs": [
        {
          "internalType": "uint256",
          "name": "",
          "type": "uint256"
        }
      ],
      "name": "projects",
      "outputs": [
        {
          "internalType": "string",
          "name": "ProjectTitle",
          "type": "string"
        },
        {
          "internalType": "string",
          "name": "description",
          "type": "string"
        },
        {
          "internalType": "address payable",
          "name": "owner",
          "type": "address"
        },
        {
          "internalType": "uint256",
          "name": "minimumContribution",
          "type": "uint256"
        },
        {
          "internalType": "uint256",
          "name": "targetContribution",
          "type": "uint256"
        },
        {
          "internalType": "uint256",
          "name": "deadline",
          "type": "uint256"
        },
        {
          "internalType": "uint256",
          "name": "id",
          "type": "uint256"
        },
        {
          "internalType": "string",
          "name": "state",
          "type": "string"
        },
        {
          "internalType": "uint256",
          "name": "currentDonations",
          "type": "uint256"
        },
        {
          "internalType": "uint256",
          "name": "noContributors",
          "type": "uint256"
        }
      ],
      "stateMutability": "view",
      "type": "function"
    },
    {
      "inputs": [],
      "name": "returnProjects",
      "outputs": [
        {
          "components": [
            {
              "internalType": "string",
              "name": "ProjectTitle",
              "type": "string"
            },
            {
              "internalType": "string",
              "name": "description",
              "type": "string"
            },
            {
              "internalType": "address payable",
              "name": "owner",
              "type": "address"
            },
            {
              "internalType": "uint256",
              "name": "minimumContribution",
              "type": "uint256"
            },
            {
              "internalType": "uint256",
              "name": "targetContribution",
              "type": "uint256"
            },
            {
              "internalType": "uint256",
              "name": "deadline",
              "type": "uint256"
            },
            {
              "internalType": "uint256",
              "name": "id",
              "type": "uint256"
            },
            {
              "internalType": "string",
              "name": "state",
              "type": "string"
            },
            {
              "internalType": "uint256",
              "name": "currentDonations",
              "type": "uint256"
            },
            {
              "internalType": "uint256",
              "name": "noContributors",
              "type": "uint256"
            }
          ],
          "internalType": "struct Project[]",
          "name": "",
          "type": "tuple[]"
        }
      ],
      "stateMutability": "view",
      "type": "function"
    },
    {
      "inputs": [
        {
          "components": [
            {
              "internalType": "string",
              "name": "ProjectTitle",
              "type": "string"
            },
            {
              "internalType": "string",
              "name": "description",
              "type": "string"
            },
            {
              "internalType": "address payable",
              "name": "owner",
              "type": "address"
            },
            {
              "internalType": "uint256",
              "name": "minimumContribution",
              "type": "uint256"
            },
            {
              "internalType": "uint256",
              "name": "targetContribution",
              "type": "uint256"
            },
            {
              "internalType": "uint256",
              "name": "deadline",
              "type": "uint256"
            },
            {
              "internalType": "uint256",
              "name": "id",
              "type": "uint256"
            },
            {
              "internalType": "string",
              "name": "state",
              "type": "string"
            },
            {
              "internalType": "uint256",
              "name": "currentDonations",
              "type": "uint256"
            },
            {
              "internalType": "uint256",
              "name": "noContributors",
              "type": "uint256"
            }
          ],
          "internalType": "struct Project",
          "name": "pr",
          "type": "tuple"
        },
        {
          "internalType": "string",
          "name": "_title",
          "type": "string"
        },
        {
          "internalType": "string",
          "name": "_des",
          "type": "string"
        },
        {
          "internalType": "address payable",
          "name": "_owner",
          "type": "address"
        },
        {
          "internalType": "uint256",
          "name": "_minimumContrib",
          "type": "uint256"
        },
        {
          "internalType": "uint256",
          "name": "_target",
          "type": "uint256"
        },
        {
          "internalType": "uint256",
          "name": "_deadline",
          "type": "uint256"
        },
        {
          "internalType": "uint256",
          "name": "_id",
          "type": "uint256"
        },
        {
          "internalType": "string",
          "name": "_state",
          "type": "string"
        },
        {
          "internalType": "uint256",
          "name": "_noContributors",
          "type": "uint256"
        }
      ],
      "name": "setDetail",
      "outputs": [],
      "stateMutability": "pure",
      "type": "function"
    },
    {
      "stateMutability": "payable",
      "type": "receive"
    }
  ],
  "bytecode": "0x608060405234801561001057600080fd5b5033600160006101000a81548173ffffffffffffffffffffffffffffffffffffffff021916908373ffffffffffffffffffffffffffffffffffffffff1602179055506117f8806100616000396000f3fe6080604052600436106100595760003560e01c8063107046bd1461006557806329957db0146100ab57806360b0b0f0146100d65780638da5cb5b146100f25780639fd1f6011461011d578063ba91d1df1461014657610060565b3661006057005b600080fd5b34801561007157600080fd5b5061008c60048036038101906100879190610a24565b61016f565b6040516100a29a99989796959493929190610b31565b60405180910390f35b3480156100b757600080fd5b506100c061038b565b6040516100cd9190610df4565b60405180910390f35b6100f060048036038101906100eb9190610e42565b610633565b005b3480156100fe57600080fd5b50610107610789565b6040516101149190610ea3565b60405180910390f35b34801561012957600080fd5b50610144600480360381019061013f9190610ff3565b6107af565b005b34801561015257600080fd5b5061016d60048036038101906101689190611251565b6108d3565b005b6000818154811061017f57600080fd5b90600052602060002090600a02016000915090508060000180546101a2906113cf565b80601f01602080910402602001604051908101604052809291908181526020018280546101ce906113cf565b801561021b5780601f106101f05761010080835404028352916020019161021b565b820191906000526020600020905b8154815290600101906020018083116101fe57829003601f168201915b505050505090806001018054610230906113cf565b80601f016020809104026020016040519081016040528092919081815260200182805461025c906113cf565b80156102a95780601f1061027e576101008083540402835291602001916102a9565b820191906000526020600020905b81548152906001019060200180831161028c57829003601f168201915b5050505050908060020160009054906101000a900473ffffffffffffffffffffffffffffffffffffffff16908060030154908060040154908060050154908060060154908060070180546102fc906113cf565b80601f0160208091040260200160405190810160405280929190818152602001828054610328906113cf565b80156103755780601f1061034a57610100808354040283529160200191610375565b820191906000526020600020905b81548152906001019060200180831161035857829003601f168201915b505050505090806008015490806009015490508a565b60606000805480602002602001604051908101604052809291908181526020016000905b8282101561062a57838290600052602060002090600a0201604051806101400160405290816000820180546103e3906113cf565b80601f016020809104026020016040519081016040528092919081815260200182805461040f906113cf565b801561045c5780601f106104315761010080835404028352916020019161045c565b820191906000526020600020905b81548152906001019060200180831161043f57829003601f168201915b50505050508152602001600182018054610475906113cf565b80601f01602080910402602001604051908101604052809291908181526020018280546104a1906113cf565b80156104ee5780601f106104c3576101008083540402835291602001916104ee565b820191906000526020600020905b8154815290600101906020018083116104d157829003601f168201915b505050505081526020016002820160009054906101000a900473ffffffffffffffffffffffffffffffffffffffff1673ffffffffffffffffffffffffffffffffffffffff1673ffffffffffffffffffffffffffffffffffffffff16815260200160038201548152602001600482015481526020016005820154815260200160068201548152602001600782018054610585906113cf565b80601f01602080910402602001604051908101604052809291908181526020018280546105b1906113cf565b80156105fe5780601f106105d3576101008083540402835291602001916105fe565b820191906000526020600020905b8154815290600101906020018083116105e157829003601f168201915b5050505050815260200160088201548152602001600982015481525050815260200190600101906103af565b50505050905090565b60008173ffffffffffffffffffffffffffffffffffffffff163460405161065990611431565b60006040518083038185875af1925050503d8060008114610696576040519150601f19603f3d011682016040523d82523d6000602084013e61069b565b606091505b50509050806106df576040517f08c379a00000000000000000000000000000000000000000000000000000000081526004016106d690611492565b60405180910390fd5b34600084815481106106f4576106f36114b2565b5b90600052602060002090600a020160080160008282546107149190611510565b92505081905550600160008481548110610731576107306114b2565b5b90600052602060002090600a020160090160008282546107519190611510565b925050819055507fe03ac72194d8a130766e20a1368be8f057bcc3955b82fb46de9afed82e8650d760405160405180910390a1505050565b600160009054906101000a900473ffffffffffffffffffffffffffffffffffffffff1681565b6000808054905090506107c0610971565b6107d2818b8b8b8b8b8b898c8c6108d3565b60008190806001815401808255809150506001900390600052602060002090600a0201600090919091909150600082015181600001908161081391906116f0565b50602082015181600101908161082991906116f0565b5060408201518160020160006101000a81548173ffffffffffffffffffffffffffffffffffffffff021916908373ffffffffffffffffffffffffffffffffffffffff160217905550606082015181600301556080820151816004015560a0820151816005015560c0820151816006015560e08201518160070190816108ae91906116f0565b5061010082015181600801556101208201518160090155505050505050505050505050565b888a60000181905250878a60200181905250868a6040019073ffffffffffffffffffffffffffffffffffffffff16908173ffffffffffffffffffffffffffffffffffffffff1681525050858a6060018181525050848a6080018181525050838a60a0018181525050828a60c0018181525050818a60e0018190525060008a610100018181525050808a61012001818152505050505050505050505050565b6040518061014001604052806060815260200160608152602001600073ffffffffffffffffffffffffffffffffffffffff168152602001600081526020016000815260200160008152602001600081526020016060815260200160008152602001600081525090565b6000604051905090565b600080fd5b600080fd5b6000819050919050565b610a01816109ee565b8114610a0c57600080fd5b50565b600081359050610a1e816109f8565b92915050565b600060208284031215610a3a57610a396109e4565b5b6000610a4884828501610a0f565b91505092915050565b600081519050919050565b600082825260208201905092915050565b60005b83811015610a8b578082015181840152602081019050610a70565b60008484015250505050565b6000601f19601f8301169050919050565b6000610ab382610a51565b610abd8185610a5c565b9350610acd818560208601610a6d565b610ad681610a97565b840191505092915050565b600073ffffffffffffffffffffffffffffffffffffffff82169050919050565b6000610b0c82610ae1565b9050919050565b610b1c81610b01565b82525050565b610b2b816109ee565b82525050565b6000610140820190508181036000830152610b4c818d610aa8565b90508181036020830152610b60818c610aa8565b9050610b6f604083018b610b13565b610b7c606083018a610b22565b610b896080830189610b22565b610b9660a0830188610b22565b610ba360c0830187610b22565b81810360e0830152610bb58186610aa8565b9050610bc5610100830185610b22565b610bd3610120830184610b22565b9b9a5050505050505050505050565b600081519050919050565b600082825260208201905092915050565b6000819050602082019050919050565b600082825260208201905092915050565b6000610c2a82610a51565b610c348185610c0e565b9350610c44818560208601610a6d565b610c4d81610a97565b840191505092915050565b610c6181610b01565b82525050565b610c70816109ee565b82525050565b6000610140830160008301518482036000860152610c948282610c1f565b91505060208301518482036020860152610cae8282610c1f565b9150506040830151610cc36040860182610c58565b506060830151610cd66060860182610c67565b506080830151610ce96080860182610c67565b5060a0830151610cfc60a0860182610c67565b5060c0830151610d0f60c0860182610c67565b5060e083015184820360e0860152610d278282610c1f565b915050610100830151610d3e610100860182610c67565b50610120830151610d53610120860182610c67565b508091505092915050565b6000610d6a8383610c76565b905092915050565b6000602082019050919050565b6000610d8a82610be2565b610d948185610bed565b935083602082028501610da685610bfe565b8060005b85811015610de25784840389528151610dc38582610d5e565b9450610dce83610d72565b925060208a01995050600181019050610daa565b50829750879550505050505092915050565b60006020820190508181036000830152610e0e8184610d7f565b905092915050565b610e1f81610b01565b8114610e2a57600080fd5b50565b600081359050610e3c81610e16565b92915050565b60008060408385031215610e5957610e586109e4565b5b6000610e6785828601610a0f565b9250506020610e7885828601610e2d565b9150509250929050565b6000610e8d82610ae1565b9050919050565b610e9d81610e82565b82525050565b6000602082019050610eb86000830184610e94565b92915050565b600080fd5b600080fd5b7f4e487b7100000000000000000000000000000000000000000000000000000000600052604160045260246000fd5b610f0082610a97565b810181811067ffffffffffffffff82111715610f1f57610f1e610ec8565b5b80604052505050565b6000610f326109da565b9050610f3e8282610ef7565b919050565b600067ffffffffffffffff821115610f5e57610f5d610ec8565b5b610f6782610a97565b9050602081019050919050565b82818337600083830152505050565b6000610f96610f9184610f43565b610f28565b905082815260208101848484011115610fb257610fb1610ec3565b5b610fbd848285610f74565b509392505050565b600082601f830112610fda57610fd9610ebe565b5b8135610fea848260208601610f83565b91505092915050565b600080600080600080600080610100898b031215611014576110136109e4565b5b600089013567ffffffffffffffff811115611032576110316109e9565b5b61103e8b828c01610fc5565b985050602089013567ffffffffffffffff81111561105f5761105e6109e9565b5b61106b8b828c01610fc5565b975050604061107c8b828c01610e2d565b965050606061108d8b828c01610a0f565b955050608061109e8b828c01610a0f565b94505060a06110af8b828c01610a0f565b93505060c089013567ffffffffffffffff8111156110d0576110cf6109e9565b5b6110dc8b828c01610fc5565b92505060e06110ed8b828c01610a0f565b9150509295985092959890939650565b600080fd5b600080fd5b6000610140828403121561111e5761111d6110fd565b5b611129610140610f28565b9050600082013567ffffffffffffffff81111561114957611148611102565b5b61115584828501610fc5565b600083015250602082013567ffffffffffffffff81111561117957611178611102565b5b61118584828501610fc5565b602083015250604061119984828501610e2d565b60408301525060606111ad84828501610a0f565b60608301525060806111c184828501610a0f565b60808301525060a06111d584828501610a0f565b60a08301525060c06111e984828501610a0f565b60c08301525060e082013567ffffffffffffffff81111561120d5761120c611102565b5b61121984828501610fc5565b60e08301525061010061122e84828501610a0f565b6101008301525061012061124484828501610a0f565b6101208301525092915050565b6000806000806000806000806000806101408b8d031215611275576112746109e4565b5b60008b013567ffffffffffffffff811115611293576112926109e9565b5b61129f8d828e01611107565b9a505060208b013567ffffffffffffffff8111156112c0576112bf6109e9565b5b6112cc8d828e01610fc5565b99505060408b013567ffffffffffffffff8111156112ed576112ec6109e9565b5b6112f98d828e01610fc5565b985050606061130a8d828e01610e2d565b975050608061131b8d828e01610a0f565b96505060a061132c8d828e01610a0f565b95505060c061133d8d828e01610a0f565b94505060e061134e8d828e01610a0f565b9350506101008b013567ffffffffffffffff8111156113705761136f6109e9565b5b61137c8d828e01610fc5565b92505061012061138e8d828e01610a0f565b9150509295989b9194979a5092959850565b7f4e487b7100000000000000000000000000000000000000000000000000000000600052602260045260246000fd5b600060028204905060018216806113e757607f821691505b6020821081036113fa576113f96113a0565b5b50919050565b600081905092915050565b50565b600061141b600083611400565b91506114268261140b565b600082019050919050565b600061143c8261140e565b9150819050919050565b7f4661696c656420746f2073656e64204574686572000000000000000000000000600082015250565b600061147c601483610a5c565b915061148782611446565b602082019050919050565b600060208201905081810360008301526114ab8161146f565b9050919050565b7f4e487b7100000000000000000000000000000000000000000000000000000000600052603260045260246000fd5b7f4e487b7100000000000000000000000000000000000000000000000000000000600052601160045260246000fd5b600061151b826109ee565b9150611526836109ee565b925082820190508082111561153e5761153d6114e1565b5b92915050565b60008190508160005260206000209050919050565b60006020601f8301049050919050565b600082821b905092915050565b6000600883026115a67fffffffffffffffffffffffffffffffffffffffffffffffffffffffffffffffff82611569565b6115b08683611569565b95508019841693508086168417925050509392505050565b6000819050919050565b60006115ed6115e86115e3846109ee565b6115c8565b6109ee565b9050919050565b6000819050919050565b611607836115d2565b61161b611613826115f4565b848454611576565b825550505050565b600090565b611630611623565b61163b8184846115fe565b505050565b5b8181101561165f57611654600082611628565b600181019050611641565b5050565b601f8211156116a45761167581611544565b61167e84611559565b8101602085101561168d578190505b6116a161169985611559565b830182611640565b50505b505050565b600082821c905092915050565b60006116c7600019846008026116a9565b1980831691505092915050565b60006116e083836116b6565b9150826002028217905092915050565b6116f982610a51565b67ffffffffffffffff81111561171257611711610ec8565b5b61171c82546113cf565b611727828285611663565b600060209050601f83116001811461175a5760008415611748578287015190505b61175285826116d4565b8655506117ba565b601f19841661176886611544565b60005b828110156117905784890151825560018201915060208501945060208101905061176b565b868310156117ad57848901516117a9601f8916826116b6565b8355505b6001600288020188555050505b50505050505056fea26469706673582212209dff75d88bd3f0aad6d3ad1902d5352a1c309fb61f29a8dcadcbadf3cc9615bb64736f6c63430008110033",
  "linkReferences": {},
  "deployedLinkReferences": {}
}