{
    "_format": "hh-sol-artifact-1",
    "contractName": "Crowdfund",
    "sourceName": "contracts/Crowdfund.sol",
    "abi": [
        {
            "inputs": [],
            "stateMutability": "nonpayable",
            "type": "constructor"
        },
        {
            "inputs": [],
            "name": "owner",
            "outputs": [
                {
                    "internalType": "address",
                    "name": "",
                    "type": "address"
                }
            ],
            "stateMutability": "view",
            "type": "function"
        },
        {
            "inputs": [
                {
                    "internalType": "uint256",
                    "name": "",
                    "type": "uint256"
                }
            ],
            "name": "projects",
            "outputs": [
                {
                    "internalType": "contract Project",
                    "name": "",
                    "type": "address"
                }
            ],
            "stateMutability": "view",
            "type": "function"
        },
        {
            "inputs": [],
            "name": "returnProjects",
            "outputs": [
                {
                    "internalType": "contract Project[]",
                    "name": "",
                    "type": "address[]"
                }
            ],
            "stateMutability": "view",
            "type": "function"
        }
    ],
    "bytecode": "0x608060405234801561001057600080fd5b5033600160006101000a81548173ffffffffffffffffffffffffffffffffffffffff021916908373ffffffffffffffffffffffffffffffffffffffff16021790555061009a6040518060400160405280601281526020017f43726f776466756e6420636f6e7472616374000000000000000000000000000081525061009f60201b6101a51760201c565b610219565b61013b816040516024016100b391906101f7565b6040516020818303038152906040527f41304fac000000000000000000000000000000000000000000000000000000007bffffffffffffffffffffffffffffffffffffffffffffffffffffffff19166020820180517bffffffffffffffffffffffffffffffffffffffffffffffffffffffff838183161783525050505061013e60201b60201c565b50565b60008151905060006a636f6e736f6c652e6c6f679050602083016000808483855afa5050505050565b600081519050919050565b600082825260208201905092915050565b60005b838110156101a1578082015181840152602081019050610186565b60008484015250505050565b6000601f19601f8301169050919050565b60006101c982610167565b6101d38185610172565b93506101e3818560208601610183565b6101ec816101ad565b840191505092915050565b6000602082019050818103600083015261021181846101be565b905092915050565b61056d806102286000396000f3fe608060405234801561001057600080fd5b50600436106100415760003560e01c8063107046bd1461004657806329957db0146100765780638da5cb5b14610094575b600080fd5b610060600480360381019061005b91906102a2565b6100b2565b60405161006d919061034e565b60405180910390f35b61007e6100f1565b60405161008b9190610427565b60405180910390f35b61009c61017f565b6040516100a9919061046a565b60405180910390f35b600081815481106100c257600080fd5b906000526020600020016000915054906101000a900473ffffffffffffffffffffffffffffffffffffffff1681565b6060600080548060200260200160405190810160405280929190818152602001828054801561017557602002820191906000526020600020905b8160009054906101000a900473ffffffffffffffffffffffffffffffffffffffff1673ffffffffffffffffffffffffffffffffffffffff168152602001906001019080831161012b575b5050505050905090565b600160009054906101000a900473ffffffffffffffffffffffffffffffffffffffff1681565b61023b816040516024016101b99190610515565b6040516020818303038152906040527f41304fac000000000000000000000000000000000000000000000000000000007bffffffffffffffffffffffffffffffffffffffffffffffffffffffff19166020820180517bffffffffffffffffffffffffffffffffffffffffffffffffffffffff838183161783525050505061023e565b50565b60008151905060006a636f6e736f6c652e6c6f679050602083016000808483855afa5050505050565b600080fd5b6000819050919050565b61027f8161026c565b811461028a57600080fd5b50565b60008135905061029c81610276565b92915050565b6000602082840312156102b8576102b7610267565b5b60006102c68482850161028d565b91505092915050565b600073ffffffffffffffffffffffffffffffffffffffff82169050919050565b6000819050919050565b600061031461030f61030a846102cf565b6102ef565b6102cf565b9050919050565b6000610326826102f9565b9050919050565b60006103388261031b565b9050919050565b6103488161032d565b82525050565b6000602082019050610363600083018461033f565b92915050565b600081519050919050565b600082825260208201905092915050565b6000819050602082019050919050565b61039e8161032d565b82525050565b60006103b08383610395565b60208301905092915050565b6000602082019050919050565b60006103d482610369565b6103de8185610374565b93506103e983610385565b8060005b8381101561041a57815161040188826103a4565b975061040c836103bc565b9250506001810190506103ed565b5085935050505092915050565b6000602082019050818103600083015261044181846103c9565b905092915050565b6000610454826102cf565b9050919050565b61046481610449565b82525050565b600060208201905061047f600083018461045b565b92915050565b600081519050919050565b600082825260208201905092915050565b60005b838110156104bf5780820151818401526020810190506104a4565b60008484015250505050565b6000601f19601f8301169050919050565b60006104e782610485565b6104f18185610490565b93506105018185602086016104a1565b61050a816104cb565b840191505092915050565b6000602082019050818103600083015261052f81846104dc565b90509291505056fea264697066735822122030f3aec3e436fefc8dc0b485c220dc274e267e24e335269783f74e963a2baf4364736f6c63430008110033",
    "linkReferences": {},
    "deployedLinkReferences": {}
}