{
  "_format": "hh-sol-artifact-1",
  "contractName": "Crowdfund",
  "sourceName": "contracts/Crowdfund.sol",
  "abi": [
    {
      "inputs": [
        {
          "internalType": "address",
          "name": "_contractAddress",
          "type": "address"
        }
      ],
      "stateMutability": "nonpayable",
      "type": "constructor"
    },
    {
      "inputs": [
        {
          "internalType": "string",
          "name": "_title",
          "type": "string"
        },
        {
          "internalType": "string",
          "name": "_des",
          "type": "string"
        },
        {
          "internalType": "address payable",
          "name": "_owner",
          "type": "address"
        },
        {
          "internalType": "uint256",
          "name": "_minimumContrib",
          "type": "uint256"
        },
        {
          "internalType": "uint256",
          "name": "_target",
          "type": "uint256"
        },
        {
          "internalType": "uint256",
          "name": "_deadline",
          "type": "uint256"
        },
        {
          "internalType": "string",
          "name": "_state",
          "type": "string"
        },
        {
          "internalType": "uint256",
          "name": "_noContributors",
          "type": "uint256"
        }
      ],
      "name": "addProject",
      "outputs": [],
      "stateMutability": "nonpayable",
      "type": "function"
    },
    {
      "inputs": [],
      "name": "contractAddress",
      "outputs": [
        {
          "internalType": "address",
          "name": "",
          "type": "address"
        }
      ],
      "stateMutability": "view",
      "type": "function"
    },
    {
      "inputs": [],
      "name": "owner",
      "outputs": [
        {
          "internalType": "address",
          "name": "",
          "type": "address"
        }
      ],
      "stateMutability": "view",
      "type": "function"
    },
    {
      "inputs": [
        {
          "internalType": "uint256",
          "name": "",
          "type": "uint256"
        }
      ],
      "name": "projects",
      "outputs": [
        {
          "internalType": "contract Project",
          "name": "",
          "type": "address"
        }
      ],
      "stateMutability": "view",
      "type": "function"
    },
    {
      "inputs": [],
      "name": "returnProjects",
      "outputs": [
        {
          "internalType": "contract Project[]",
          "name": "",
          "type": "address[]"
        }
      ],
      "stateMutability": "view",
      "type": "function"
    }
  ],
  "bytecode": "0x608060405234801561001057600080fd5b50604051610be0380380610be08339818101604052810190610032919061011d565b33600160006101000a81548173ffffffffffffffffffffffffffffffffffffffff021916908373ffffffffffffffffffffffffffffffffffffffff16021790555080600260006101000a81548173ffffffffffffffffffffffffffffffffffffffff021916908373ffffffffffffffffffffffffffffffffffffffff1602179055505061014a565b600080fd5b600073ffffffffffffffffffffffffffffffffffffffff82169050919050565b60006100ea826100bf565b9050919050565b6100fa816100df565b811461010557600080fd5b50565b600081519050610117816100f1565b92915050565b600060208284031215610133576101326100ba565b5b600061014184828501610108565b91505092915050565b610a87806101596000396000f3fe608060405234801561001057600080fd5b50600436106100575760003560e01c8063107046bd1461005c57806329957db01461008c5780638da5cb5b146100aa5780639fd1f601146100c8578063f6b4dfb4146100e4575b600080fd5b6100766004803603810190610071919061047f565b610102565b604051610083919061052b565b60405180910390f35b610094610141565b6040516100a19190610604565b60405180910390f35b6100b26101cf565b6040516100bf9190610647565b60405180910390f35b6100e260048036038101906100dd91906107e6565b6101f5565b005b6100ec61034d565b6040516100f99190610647565b60405180910390f35b6000818154811061011257600080fd5b906000526020600020016000915054906101000a900473ffffffffffffffffffffffffffffffffffffffff1681565b606060008054806020026020016040519081016040528092919081815260200182805480156101c557602002820191906000526020600020905b8160009054906101000a900473ffffffffffffffffffffffffffffffffffffffff1673ffffffffffffffffffffffffffffffffffffffff168152602001906001019080831161017b575b5050505050905090565b600160009054906101000a900473ffffffffffffffffffffffffffffffffffffffff1681565b6000808054905090506000600260009054906101000a900473ffffffffffffffffffffffffffffffffffffffff1690506102636040518060400160405280600981526020017f5475726920687572690000000000000000000000000000000000000000000000815250610373565b8073ffffffffffffffffffffffffffffffffffffffff16631383bb138b8b8b8b8b8b898c8c6040518a63ffffffff1660e01b81526004016102ac9998979695949392919061098d565b600060405180830381600087803b1580156102c657600080fd5b505af11580156102da573d6000803e3d6000fd5b505050506000819080600181540180825580915050600190039060005260206000200160009091909190916101000a81548173ffffffffffffffffffffffffffffffffffffffff021916908373ffffffffffffffffffffffffffffffffffffffff16021790555050505050505050505050565b600260009054906101000a900473ffffffffffffffffffffffffffffffffffffffff1681565b610409816040516024016103879190610a2f565b6040516020818303038152906040527f41304fac000000000000000000000000000000000000000000000000000000007bffffffffffffffffffffffffffffffffffffffffffffffffffffffff19166020820180517bffffffffffffffffffffffffffffffffffffffffffffffffffffffff838183161783525050505061040c565b50565b60008151905060006a636f6e736f6c652e6c6f679050602083016000808483855afa5050505050565b6000604051905090565b600080fd5b600080fd5b6000819050919050565b61045c81610449565b811461046757600080fd5b50565b60008135905061047981610453565b92915050565b6000602082840312156104955761049461043f565b5b60006104a38482850161046a565b91505092915050565b600073ffffffffffffffffffffffffffffffffffffffff82169050919050565b6000819050919050565b60006104f16104ec6104e7846104ac565b6104cc565b6104ac565b9050919050565b6000610503826104d6565b9050919050565b6000610515826104f8565b9050919050565b6105258161050a565b82525050565b6000602082019050610540600083018461051c565b92915050565b600081519050919050565b600082825260208201905092915050565b6000819050602082019050919050565b61057b8161050a565b82525050565b600061058d8383610572565b60208301905092915050565b6000602082019050919050565b60006105b182610546565b6105bb8185610551565b93506105c683610562565b8060005b838110156105f75781516105de8882610581565b97506105e983610599565b9250506001810190506105ca565b5085935050505092915050565b6000602082019050818103600083015261061e81846105a6565b905092915050565b6000610631826104ac565b9050919050565b61064181610626565b82525050565b600060208201905061065c6000830184610638565b92915050565b600080fd5b600080fd5b6000601f19601f8301169050919050565b7f4e487b7100000000000000000000000000000000000000000000000000000000600052604160045260246000fd5b6106b58261066c565b810181811067ffffffffffffffff821117156106d4576106d361067d565b5b80604052505050565b60006106e7610435565b90506106f382826106ac565b919050565b600067ffffffffffffffff8211156107135761071261067d565b5b61071c8261066c565b9050602081019050919050565b82818337600083830152505050565b600061074b610746846106f8565b6106dd565b90508281526020810184848401111561076757610766610667565b5b610772848285610729565b509392505050565b600082601f83011261078f5761078e610662565b5b813561079f848260208601610738565b91505092915050565b60006107b3826104ac565b9050919050565b6107c3816107a8565b81146107ce57600080fd5b50565b6000813590506107e0816107ba565b92915050565b600080600080600080600080610100898b0312156108075761080661043f565b5b600089013567ffffffffffffffff81111561082557610824610444565b5b6108318b828c0161077a565b985050602089013567ffffffffffffffff81111561085257610851610444565b5b61085e8b828c0161077a565b975050604061086f8b828c016107d1565b96505060606108808b828c0161046a565b95505060806108918b828c0161046a565b94505060a06108a28b828c0161046a565b93505060c089013567ffffffffffffffff8111156108c3576108c2610444565b5b6108cf8b828c0161077a565b92505060e06108e08b828c0161046a565b9150509295985092959890939650565b600081519050919050565b600082825260208201905092915050565b60005b8381101561092a57808201518184015260208101905061090f565b60008484015250505050565b6000610941826108f0565b61094b81856108fb565b935061095b81856020860161090c565b6109648161066c565b840191505092915050565b610978816107a8565b82525050565b61098781610449565b82525050565b60006101208201905081810360008301526109a8818c610936565b905081810360208301526109bc818b610936565b90506109cb604083018a61096f565b6109d8606083018961097e565b6109e5608083018861097e565b6109f260a083018761097e565b6109ff60c083018661097e565b81810360e0830152610a118185610936565b9050610a2161010083018461097e565b9a9950505050505050505050565b60006020820190508181036000830152610a498184610936565b90509291505056fea2646970667358221220d4f31f926456f33b756c4a46ad2d18d0eb90d2bc007f3ed753e1b3f7c5705bea64736f6c63430008110033",
  "linkReferences": {},
  "deployedLinkReferences": {}
}