{
  "_format": "hh-sol-artifact-1",
  "contractName": "Crowdfund",
  "sourceName": "contracts/Crowdfund.sol",
  "abi": [
    {
      "inputs": [],
      "stateMutability": "nonpayable",
      "type": "constructor"
    },
    {
      "anonymous": false,
      "inputs": [],
      "name": "Contributed",
      "type": "event"
    },
    {
      "anonymous": false,
      "inputs": [],
      "name": "Extract",
      "type": "event"
    },
    {
      "inputs": [
        {
          "internalType": "string",
          "name": "_title",
          "type": "string"
        },
        {
          "internalType": "string",
          "name": "_des",
          "type": "string"
        },
        {
          "internalType": "address payable",
          "name": "_owner",
          "type": "address"
        },
        {
          "internalType": "uint256",
          "name": "_minimumContrib",
          "type": "uint256"
        },
        {
          "internalType": "uint256",
          "name": "_target",
          "type": "uint256"
        },
        {
          "internalType": "uint256",
          "name": "_deadline",
          "type": "uint256"
        },
        {
          "internalType": "string",
          "name": "_state",
          "type": "string"
        },
        {
          "internalType": "uint256",
          "name": "_noContributors",
          "type": "uint256"
        }
      ],
      "name": "addProject",
      "outputs": [],
      "stateMutability": "nonpayable",
      "type": "function"
    },
    {
      "inputs": [
        {
          "internalType": "uint256",
          "name": "id",
          "type": "uint256"
        }
      ],
      "name": "contribute",
      "outputs": [],
      "stateMutability": "payable",
      "type": "function"
    },
    {
      "inputs": [
        {
          "internalType": "uint256",
          "name": "id",
          "type": "uint256"
        }
      ],
      "name": "extract",
      "outputs": [],
      "stateMutability": "payable",
      "type": "function"
    },
    {
      "inputs": [],
      "name": "owner",
      "outputs": [
        {
          "internalType": "address",
          "name": "",
          "type": "address"
        }
      ],
      "stateMutability": "view",
      "type": "function"
    },
    {
      "inputs": [
        {
          "internalType": "uint256",
          "name": "",
          "type": "uint256"
        }
      ],
      "name": "projects",
      "outputs": [
        {
          "internalType": "string",
          "name": "ProjectTitle",
          "type": "string"
        },
        {
          "internalType": "string",
          "name": "description",
          "type": "string"
        },
        {
          "internalType": "address payable",
          "name": "owner",
          "type": "address"
        },
        {
          "internalType": "uint256",
          "name": "minimumContribution",
          "type": "uint256"
        },
        {
          "internalType": "uint256",
          "name": "targetContribution",
          "type": "uint256"
        },
        {
          "internalType": "uint256",
          "name": "deadline",
          "type": "uint256"
        },
        {
          "internalType": "uint256",
          "name": "id",
          "type": "uint256"
        },
        {
          "internalType": "string",
          "name": "state",
          "type": "string"
        },
        {
          "internalType": "uint256",
          "name": "currentDonations",
          "type": "uint256"
        },
        {
          "internalType": "uint256",
          "name": "noContributors",
          "type": "uint256"
        }
      ],
      "stateMutability": "view",
      "type": "function"
    },
    {
      "inputs": [],
      "name": "returnProjects",
      "outputs": [
        {
          "components": [
            {
              "internalType": "string",
              "name": "ProjectTitle",
              "type": "string"
            },
            {
              "internalType": "string",
              "name": "description",
              "type": "string"
            },
            {
              "internalType": "address payable",
              "name": "owner",
              "type": "address"
            },
            {
              "internalType": "uint256",
              "name": "minimumContribution",
              "type": "uint256"
            },
            {
              "internalType": "uint256",
              "name": "targetContribution",
              "type": "uint256"
            },
            {
              "internalType": "uint256",
              "name": "deadline",
              "type": "uint256"
            },
            {
              "internalType": "uint256",
              "name": "id",
              "type": "uint256"
            },
            {
              "internalType": "string",
              "name": "state",
              "type": "string"
            },
            {
              "internalType": "uint256",
              "name": "currentDonations",
              "type": "uint256"
            },
            {
              "internalType": "uint256",
              "name": "noContributors",
              "type": "uint256"
            }
          ],
          "internalType": "struct Project[]",
          "name": "",
          "type": "tuple[]"
        }
      ],
      "stateMutability": "view",
      "type": "function"
    },
    {
      "inputs": [
        {
          "components": [
            {
              "internalType": "string",
              "name": "ProjectTitle",
              "type": "string"
            },
            {
              "internalType": "string",
              "name": "description",
              "type": "string"
            },
            {
              "internalType": "address payable",
              "name": "owner",
              "type": "address"
            },
            {
              "internalType": "uint256",
              "name": "minimumContribution",
              "type": "uint256"
            },
            {
              "internalType": "uint256",
              "name": "targetContribution",
              "type": "uint256"
            },
            {
              "internalType": "uint256",
              "name": "deadline",
              "type": "uint256"
            },
            {
              "internalType": "uint256",
              "name": "id",
              "type": "uint256"
            },
            {
              "internalType": "string",
              "name": "state",
              "type": "string"
            },
            {
              "internalType": "uint256",
              "name": "currentDonations",
              "type": "uint256"
            },
            {
              "internalType": "uint256",
              "name": "noContributors",
              "type": "uint256"
            }
          ],
          "internalType": "struct Project",
          "name": "pr",
          "type": "tuple"
        },
        {
          "internalType": "string",
          "name": "_title",
          "type": "string"
        },
        {
          "internalType": "string",
          "name": "_des",
          "type": "string"
        },
        {
          "internalType": "address payable",
          "name": "_owner",
          "type": "address"
        },
        {
          "internalType": "uint256",
          "name": "_minimumContrib",
          "type": "uint256"
        },
        {
          "internalType": "uint256",
          "name": "_target",
          "type": "uint256"
        },
        {
          "internalType": "uint256",
          "name": "_deadline",
          "type": "uint256"
        },
        {
          "internalType": "uint256",
          "name": "_id",
          "type": "uint256"
        },
        {
          "internalType": "string",
          "name": "_state",
          "type": "string"
        },
        {
          "internalType": "uint256",
          "name": "_noContributors",
          "type": "uint256"
        }
      ],
      "name": "setDetail",
      "outputs": [],
      "stateMutability": "pure",
      "type": "function"
    },
    {
      "stateMutability": "payable",
      "type": "receive"
    }
  ],
  "bytecode": "0x608060405234801561001057600080fd5b5033600160006101000a81548173ffffffffffffffffffffffffffffffffffffffff021916908373ffffffffffffffffffffffffffffffffffffffff160217905550611c38806100616000396000f3fe6080604052600436106100745760003560e01c80638da5cb5b1161004e5780638da5cb5b1461010d5780639fd1f60114610138578063ba91d1df14610161578063c1cbbca71461018a5761007b565b8063107046bd1461008057806329957db0146100c657806385b39782146100f15761007b565b3661007b57005b600080fd5b34801561008c57600080fd5b506100a760048036038101906100a29190610e33565b6101a6565b6040516100bd9a99989796959493929190610f40565b60405180910390f35b3480156100d257600080fd5b506100db6103c2565b6040516100e89190611203565b60405180910390f35b61010b60048036038101906101069190610e33565b61066a565b005b34801561011957600080fd5b506101226108a4565b60405161012f9190611246565b60405180910390f35b34801561014457600080fd5b5061015f600480360381019061015a91906113c2565b6108ca565b005b34801561016d57600080fd5b5061018860048036038101906101839190611620565b6109ee565b005b6101a4600480360381019061019f9190610e33565b610a8c565b005b600081815481106101b657600080fd5b90600052602060002090600a02016000915090508060000180546101d99061179e565b80601f01602080910402602001604051908101604052809291908181526020018280546102059061179e565b80156102525780601f1061022757610100808354040283529160200191610252565b820191906000526020600020905b81548152906001019060200180831161023557829003601f168201915b5050505050908060010180546102679061179e565b80601f01602080910402602001604051908101604052809291908181526020018280546102939061179e565b80156102e05780601f106102b5576101008083540402835291602001916102e0565b820191906000526020600020905b8154815290600101906020018083116102c357829003601f168201915b5050505050908060020160009054906101000a900473ffffffffffffffffffffffffffffffffffffffff16908060030154908060040154908060050154908060060154908060070180546103339061179e565b80601f016020809104026020016040519081016040528092919081815260200182805461035f9061179e565b80156103ac5780601f10610381576101008083540402835291602001916103ac565b820191906000526020600020905b81548152906001019060200180831161038f57829003601f168201915b505050505090806008015490806009015490508a565b60606000805480602002602001604051908101604052809291908181526020016000905b8282101561066157838290600052602060002090600a02016040518061014001604052908160008201805461041a9061179e565b80601f01602080910402602001604051908101604052809291908181526020018280546104469061179e565b80156104935780601f1061046857610100808354040283529160200191610493565b820191906000526020600020905b81548152906001019060200180831161047657829003601f168201915b505050505081526020016001820180546104ac9061179e565b80601f01602080910402602001604051908101604052809291908181526020018280546104d89061179e565b80156105255780601f106104fa57610100808354040283529160200191610525565b820191906000526020600020905b81548152906001019060200180831161050857829003601f168201915b505050505081526020016002820160009054906101000a900473ffffffffffffffffffffffffffffffffffffffff1673ffffffffffffffffffffffffffffffffffffffff1673ffffffffffffffffffffffffffffffffffffffff168152602001600382015481526020016004820154815260200160058201548152602001600682015481526020016007820180546105bc9061179e565b80601f01602080910402602001604051908101604052809291908181526020018280546105e89061179e565b80156106355780601f1061060a57610100808354040283529160200191610635565b820191906000526020600020905b81548152906001019060200180831161061857829003601f168201915b5050505050815260200160088201548152602001600982015481525050815260200190600101906103e6565b50505050905090565b61069860008281548110610681576106806117cf565b5b90600052602060002090600a020160080154610c25565b60008082815481106106ad576106ac6117cf565b5b90600052602060002090600a020160020160009054906101000a900473ffffffffffffffffffffffffffffffffffffffff1673ffffffffffffffffffffffffffffffffffffffff1660008381548110610709576107086117cf565b5b90600052602060002090600a0201600801546040516107279061182f565b60006040518083038185875af1925050503d8060008114610764576040519150601f19603f3d011682016040523d82523d6000602084013e610769565b606091505b505090506107ab6040518060400160405280600281526020017f6869000000000000000000000000000000000000000000000000000000000000815250610cbe565b600082815481106107bf576107be6117cf565b5b90600052602060002090600a020160080154600083815481106107e5576107e46117cf565b5b90600052602060002090600a020160040160008282546108059190611873565b925050819055506000808381548110610821576108206117cf565b5b90600052602060002090600a0201600801819055506108746040518060400160405280600581526020017f776f726c64000000000000000000000000000000000000000000000000000000815250610cbe565b7fbb3ce85544e3d7e997a27b549b79f9c7c0fe7aa3b05928cb9bb60e98e2c7934660405160405180910390a15050565b600160009054906101000a900473ffffffffffffffffffffffffffffffffffffffff1681565b6000808054905090506108db610d80565b6108ed818b8b8b8b8b8b898c8c6109ee565b60008190806001815401808255809150506001900390600052602060002090600a0201600090919091909150600082015181600001908161092e9190611a53565b5060208201518160010190816109449190611a53565b5060408201518160020160006101000a81548173ffffffffffffffffffffffffffffffffffffffff021916908373ffffffffffffffffffffffffffffffffffffffff160217905550606082015181600301556080820151816004015560a0820151816005015560c0820151816006015560e08201518160070190816109c99190611a53565b5061010082015181600801556101208201518160090155505050505050505050505050565b888a60000181905250878a60200181905250868a6040019073ffffffffffffffffffffffffffffffffffffffff16908173ffffffffffffffffffffffffffffffffffffffff1681525050858a6060018181525050848a6080018181525050838a60a0018181525050828a60c0018181525050818a60e0018190525060008a610100018181525050808a61012001818152505050505050505050505050565b6000808281548110610aa157610aa06117cf565b5b90600052602060002090600a020160020160009054906101000a900473ffffffffffffffffffffffffffffffffffffffff1673ffffffffffffffffffffffffffffffffffffffff1634604051610af69061182f565b60006040518083038185875af1925050503d8060008114610b33576040519150601f19603f3d011682016040523d82523d6000602084013e610b38565b606091505b5050905080610b7c576040517f08c379a0000000000000000000000000000000000000000000000000000000008152600401610b7390611b71565b60405180910390fd5b3460008381548110610b9157610b906117cf565b5b90600052602060002090600a02016008016000828254610bb19190611b91565b92505081905550600160008381548110610bce57610bcd6117cf565b5b90600052602060002090600a02016009016000828254610bee9190611b91565b925050819055507fe03ac72194d8a130766e20a1368be8f057bcc3955b82fb46de9afed82e8650d760405160405180910390a15050565b610cbb81604051602401610c399190611bc5565b6040516020818303038152906040527ff82c50f1000000000000000000000000000000000000000000000000000000007bffffffffffffffffffffffffffffffffffffffffffffffffffffffff19166020820180517bffffffffffffffffffffffffffffffffffffffffffffffffffffffff8381831617835250505050610d57565b50565b610d5481604051602401610cd29190611be0565b6040516020818303038152906040527f41304fac000000000000000000000000000000000000000000000000000000007bffffffffffffffffffffffffffffffffffffffffffffffffffffffff19166020820180517bffffffffffffffffffffffffffffffffffffffffffffffffffffffff8381831617835250505050610d57565b50565b60008151905060006a636f6e736f6c652e6c6f679050602083016000808483855afa5050505050565b6040518061014001604052806060815260200160608152602001600073ffffffffffffffffffffffffffffffffffffffff168152602001600081526020016000815260200160008152602001600081526020016060815260200160008152602001600081525090565b6000604051905090565b600080fd5b600080fd5b6000819050919050565b610e1081610dfd565b8114610e1b57600080fd5b50565b600081359050610e2d81610e07565b92915050565b600060208284031215610e4957610e48610df3565b5b6000610e5784828501610e1e565b91505092915050565b600081519050919050565b600082825260208201905092915050565b60005b83811015610e9a578082015181840152602081019050610e7f565b60008484015250505050565b6000601f19601f8301169050919050565b6000610ec282610e60565b610ecc8185610e6b565b9350610edc818560208601610e7c565b610ee581610ea6565b840191505092915050565b600073ffffffffffffffffffffffffffffffffffffffff82169050919050565b6000610f1b82610ef0565b9050919050565b610f2b81610f10565b82525050565b610f3a81610dfd565b82525050565b6000610140820190508181036000830152610f5b818d610eb7565b90508181036020830152610f6f818c610eb7565b9050610f7e604083018b610f22565b610f8b606083018a610f31565b610f986080830189610f31565b610fa560a0830188610f31565b610fb260c0830187610f31565b81810360e0830152610fc48186610eb7565b9050610fd4610100830185610f31565b610fe2610120830184610f31565b9b9a5050505050505050505050565b600081519050919050565b600082825260208201905092915050565b6000819050602082019050919050565b600082825260208201905092915050565b600061103982610e60565b611043818561101d565b9350611053818560208601610e7c565b61105c81610ea6565b840191505092915050565b61107081610f10565b82525050565b61107f81610dfd565b82525050565b60006101408301600083015184820360008601526110a3828261102e565b915050602083015184820360208601526110bd828261102e565b91505060408301516110d26040860182611067565b5060608301516110e56060860182611076565b5060808301516110f86080860182611076565b5060a083015161110b60a0860182611076565b5060c083015161111e60c0860182611076565b5060e083015184820360e0860152611136828261102e565b91505061010083015161114d610100860182611076565b50610120830151611162610120860182611076565b508091505092915050565b60006111798383611085565b905092915050565b6000602082019050919050565b600061119982610ff1565b6111a38185610ffc565b9350836020820285016111b58561100d565b8060005b858110156111f157848403895281516111d2858261116d565b94506111dd83611181565b925060208a019950506001810190506111b9565b50829750879550505050505092915050565b6000602082019050818103600083015261121d818461118e565b905092915050565b600061123082610ef0565b9050919050565b61124081611225565b82525050565b600060208201905061125b6000830184611237565b92915050565b600080fd5b600080fd5b7f4e487b7100000000000000000000000000000000000000000000000000000000600052604160045260246000fd5b6112a382610ea6565b810181811067ffffffffffffffff821117156112c2576112c161126b565b5b80604052505050565b60006112d5610de9565b90506112e1828261129a565b919050565b600067ffffffffffffffff8211156113015761130061126b565b5b61130a82610ea6565b9050602081019050919050565b82818337600083830152505050565b6000611339611334846112e6565b6112cb565b90508281526020810184848401111561135557611354611266565b5b611360848285611317565b509392505050565b600082601f83011261137d5761137c611261565b5b813561138d848260208601611326565b91505092915050565b61139f81610f10565b81146113aa57600080fd5b50565b6000813590506113bc81611396565b92915050565b600080600080600080600080610100898b0312156113e3576113e2610df3565b5b600089013567ffffffffffffffff81111561140157611400610df8565b5b61140d8b828c01611368565b985050602089013567ffffffffffffffff81111561142e5761142d610df8565b5b61143a8b828c01611368565b975050604061144b8b828c016113ad565b965050606061145c8b828c01610e1e565b955050608061146d8b828c01610e1e565b94505060a061147e8b828c01610e1e565b93505060c089013567ffffffffffffffff81111561149f5761149e610df8565b5b6114ab8b828c01611368565b92505060e06114bc8b828c01610e1e565b9150509295985092959890939650565b600080fd5b600080fd5b600061014082840312156114ed576114ec6114cc565b5b6114f86101406112cb565b9050600082013567ffffffffffffffff811115611518576115176114d1565b5b61152484828501611368565b600083015250602082013567ffffffffffffffff811115611548576115476114d1565b5b61155484828501611368565b6020830152506040611568848285016113ad565b604083015250606061157c84828501610e1e565b606083015250608061159084828501610e1e565b60808301525060a06115a484828501610e1e565b60a08301525060c06115b884828501610e1e565b60c08301525060e082013567ffffffffffffffff8111156115dc576115db6114d1565b5b6115e884828501611368565b60e0830152506101006115fd84828501610e1e565b6101008301525061012061161384828501610e1e565b6101208301525092915050565b6000806000806000806000806000806101408b8d03121561164457611643610df3565b5b60008b013567ffffffffffffffff81111561166257611661610df8565b5b61166e8d828e016114d6565b9a505060208b013567ffffffffffffffff81111561168f5761168e610df8565b5b61169b8d828e01611368565b99505060408b013567ffffffffffffffff8111156116bc576116bb610df8565b5b6116c88d828e01611368565b98505060606116d98d828e016113ad565b97505060806116ea8d828e01610e1e565b96505060a06116fb8d828e01610e1e565b95505060c061170c8d828e01610e1e565b94505060e061171d8d828e01610e1e565b9350506101008b013567ffffffffffffffff81111561173f5761173e610df8565b5b61174b8d828e01611368565b92505061012061175d8d828e01610e1e565b9150509295989b9194979a5092959850565b7f4e487b7100000000000000000000000000000000000000000000000000000000600052602260045260246000fd5b600060028204905060018216806117b657607f821691505b6020821081036117c9576117c861176f565b5b50919050565b7f4e487b7100000000000000000000000000000000000000000000000000000000600052603260045260246000fd5b600081905092915050565b50565b60006118196000836117fe565b915061182482611809565b600082019050919050565b600061183a8261180c565b9150819050919050565b7f4e487b7100000000000000000000000000000000000000000000000000000000600052601160045260246000fd5b600061187e82610dfd565b915061188983610dfd565b92508282039050818111156118a1576118a0611844565b5b92915050565b60008190508160005260206000209050919050565b60006020601f8301049050919050565b600082821b905092915050565b6000600883026119097fffffffffffffffffffffffffffffffffffffffffffffffffffffffffffffffff826118cc565b61191386836118cc565b95508019841693508086168417925050509392505050565b6000819050919050565b600061195061194b61194684610dfd565b61192b565b610dfd565b9050919050565b6000819050919050565b61196a83611935565b61197e61197682611957565b8484546118d9565b825550505050565b600090565b611993611986565b61199e818484611961565b505050565b5b818110156119c2576119b760008261198b565b6001810190506119a4565b5050565b601f821115611a07576119d8816118a7565b6119e1846118bc565b810160208510156119f0578190505b611a046119fc856118bc565b8301826119a3565b50505b505050565b600082821c905092915050565b6000611a2a60001984600802611a0c565b1980831691505092915050565b6000611a438383611a19565b9150826002028217905092915050565b611a5c82610e60565b67ffffffffffffffff811115611a7557611a7461126b565b5b611a7f825461179e565b611a8a8282856119c6565b600060209050601f831160018114611abd5760008415611aab578287015190505b611ab58582611a37565b865550611b1d565b601f198416611acb866118a7565b60005b82811015611af357848901518255600182019150602085019450602081019050611ace565b86831015611b105784890151611b0c601f891682611a19565b8355505b6001600288020188555050505b505050505050565b7f4661696c656420746f2073656e64204574686572000000000000000000000000600082015250565b6000611b5b601483610e6b565b9150611b6682611b25565b602082019050919050565b60006020820190508181036000830152611b8a81611b4e565b9050919050565b6000611b9c82610dfd565b9150611ba783610dfd565b9250828201905080821115611bbf57611bbe611844565b5b92915050565b6000602082019050611bda6000830184610f31565b92915050565b60006020820190508181036000830152611bfa8184610eb7565b90509291505056fea264697066735822122014f5ff46aa2a13d5eb541eafea3edbf257086c9c04107954087b37e8530e59c264736f6c63430008110033",
  "linkReferences": {},
  "deployedLinkReferences": {}
}