{
  "_format": "hh-sol-artifact-1",
  "contractName": "Crowdfund",
  "sourceName": "contracts/Crowdfund.sol",
  "abi": [
    {
      "inputs": [],
      "stateMutability": "nonpayable",
      "type": "constructor"
    },
    {
      "inputs": [
        {
          "internalType": "string",
          "name": "_title",
          "type": "string"
        },
        {
          "internalType": "string",
          "name": "_des",
          "type": "string"
        },
        {
          "internalType": "address payable",
          "name": "_owner",
          "type": "address"
        },
        {
          "internalType": "uint256",
          "name": "_minimumContrib",
          "type": "uint256"
        },
        {
          "internalType": "uint256",
          "name": "_target",
          "type": "uint256"
        },
        {
          "internalType": "uint256",
          "name": "_deadline",
          "type": "uint256"
        },
        {
          "internalType": "string",
          "name": "_state",
          "type": "string"
        },
        {
          "internalType": "uint256",
          "name": "_noContributors",
          "type": "uint256"
        }
      ],
      "name": "addProject",
      "outputs": [],
      "stateMutability": "nonpayable",
      "type": "function"
    },
    {
      "inputs": [],
      "name": "owner",
      "outputs": [
        {
          "internalType": "address",
          "name": "",
          "type": "address"
        }
      ],
      "stateMutability": "view",
      "type": "function"
    },
    {
      "inputs": [
        {
          "internalType": "uint256",
          "name": "",
          "type": "uint256"
        }
      ],
      "name": "projects",
      "outputs": [
        {
          "internalType": "contract Project",
          "name": "",
          "type": "address"
        }
      ],
      "stateMutability": "view",
      "type": "function"
    },
    {
      "inputs": [],
      "name": "returnProjects",
      "outputs": [
        {
          "internalType": "contract Project[]",
          "name": "",
          "type": "address[]"
        }
      ],
      "stateMutability": "view",
      "type": "function"
    }
  ],
  "bytecode": "0x608060405234801561001057600080fd5b5033600160006101000a81548173ffffffffffffffffffffffffffffffffffffffff021916908373ffffffffffffffffffffffffffffffffffffffff16021790555061009a6040518060400160405280601281526020017f43726f776466756e6420636f6e7472616374000000000000000000000000000081525061009f60201b6102c41760201c565b610219565b61013b816040516024016100b391906101f7565b6040516020818303038152906040527f41304fac000000000000000000000000000000000000000000000000000000007bffffffffffffffffffffffffffffffffffffffffffffffffffffffff19166020820180517bffffffffffffffffffffffffffffffffffffffffffffffffffffffff838183161783525050505061013e60201b60201c565b50565b60008151905060006a636f6e736f6c652e6c6f679050602083016000808483855afa5050505050565b600081519050919050565b600082825260208201905092915050565b60005b838110156101a1578082015181840152602081019050610186565b60008484015250505050565b6000601f19601f8301169050919050565b60006101c982610167565b6101d38185610172565b93506101e3818560208601610183565b6101ec816101ad565b840191505092915050565b6000602082019050818103600083015261021181846101be565b905092915050565b6109d8806102286000396000f3fe608060405234801561001057600080fd5b506004361061004c5760003560e01c8063107046bd1461005157806329957db0146100815780638da5cb5b1461009f5780639fd1f601146100bd575b600080fd5b61006b600480360381019061006691906103d0565b6100d9565b604051610078919061047c565b60405180910390f35b610089610118565b6040516100969190610555565b60405180910390f35b6100a76101a6565b6040516100b49190610598565b60405180910390f35b6100d760048036038101906100d29190610737565b6101cc565b005b600081815481106100e957600080fd5b906000526020600020016000915054906101000a900473ffffffffffffffffffffffffffffffffffffffff1681565b6060600080548060200260200160405190810160405280929190818152602001828054801561019c57602002820191906000526020600020905b8160009054906101000a900473ffffffffffffffffffffffffffffffffffffffff1673ffffffffffffffffffffffffffffffffffffffff1681526020019060010190808311610152575b5050505050905090565b600160009054906101000a900473ffffffffffffffffffffffffffffffffffffffff1681565b60008080549050905060008790508073ffffffffffffffffffffffffffffffffffffffff16631383bb138b8b8b8b8b8b898c8c6040518a63ffffffff1660e01b8152600401610223999897969594939291906108de565b600060405180830381600087803b15801561023d57600080fd5b505af1158015610251573d6000803e3d6000fd5b505050506000819080600181540180825580915050600190039060005260206000200160009091909190916101000a81548173ffffffffffffffffffffffffffffffffffffffff021916908373ffffffffffffffffffffffffffffffffffffffff16021790555050505050505050505050565b61035a816040516024016102d89190610980565b6040516020818303038152906040527f41304fac000000000000000000000000000000000000000000000000000000007bffffffffffffffffffffffffffffffffffffffffffffffffffffffff19166020820180517bffffffffffffffffffffffffffffffffffffffffffffffffffffffff838183161783525050505061035d565b50565b60008151905060006a636f6e736f6c652e6c6f679050602083016000808483855afa5050505050565b6000604051905090565b600080fd5b600080fd5b6000819050919050565b6103ad8161039a565b81146103b857600080fd5b50565b6000813590506103ca816103a4565b92915050565b6000602082840312156103e6576103e5610390565b5b60006103f4848285016103bb565b91505092915050565b600073ffffffffffffffffffffffffffffffffffffffff82169050919050565b6000819050919050565b600061044261043d610438846103fd565b61041d565b6103fd565b9050919050565b600061045482610427565b9050919050565b600061046682610449565b9050919050565b6104768161045b565b82525050565b6000602082019050610491600083018461046d565b92915050565b600081519050919050565b600082825260208201905092915050565b6000819050602082019050919050565b6104cc8161045b565b82525050565b60006104de83836104c3565b60208301905092915050565b6000602082019050919050565b600061050282610497565b61050c81856104a2565b9350610517836104b3565b8060005b8381101561054857815161052f88826104d2565b975061053a836104ea565b92505060018101905061051b565b5085935050505092915050565b6000602082019050818103600083015261056f81846104f7565b905092915050565b6000610582826103fd565b9050919050565b61059281610577565b82525050565b60006020820190506105ad6000830184610589565b92915050565b600080fd5b600080fd5b6000601f19601f8301169050919050565b7f4e487b7100000000000000000000000000000000000000000000000000000000600052604160045260246000fd5b610606826105bd565b810181811067ffffffffffffffff82111715610625576106246105ce565b5b80604052505050565b6000610638610386565b905061064482826105fd565b919050565b600067ffffffffffffffff821115610664576106636105ce565b5b61066d826105bd565b9050602081019050919050565b82818337600083830152505050565b600061069c61069784610649565b61062e565b9050828152602081018484840111156106b8576106b76105b8565b5b6106c384828561067a565b509392505050565b600082601f8301126106e0576106df6105b3565b5b81356106f0848260208601610689565b91505092915050565b6000610704826103fd565b9050919050565b610714816106f9565b811461071f57600080fd5b50565b6000813590506107318161070b565b92915050565b600080600080600080600080610100898b03121561075857610757610390565b5b600089013567ffffffffffffffff81111561077657610775610395565b5b6107828b828c016106cb565b985050602089013567ffffffffffffffff8111156107a3576107a2610395565b5b6107af8b828c016106cb565b97505060406107c08b828c01610722565b96505060606107d18b828c016103bb565b95505060806107e28b828c016103bb565b94505060a06107f38b828c016103bb565b93505060c089013567ffffffffffffffff81111561081457610813610395565b5b6108208b828c016106cb565b92505060e06108318b828c016103bb565b9150509295985092959890939650565b600081519050919050565b600082825260208201905092915050565b60005b8381101561087b578082015181840152602081019050610860565b60008484015250505050565b600061089282610841565b61089c818561084c565b93506108ac81856020860161085d565b6108b5816105bd565b840191505092915050565b6108c9816106f9565b82525050565b6108d88161039a565b82525050565b60006101208201905081810360008301526108f9818c610887565b9050818103602083015261090d818b610887565b905061091c604083018a6108c0565b61092960608301896108cf565b61093660808301886108cf565b61094360a08301876108cf565b61095060c08301866108cf565b81810360e08301526109628185610887565b90506109726101008301846108cf565b9a9950505050505050505050565b6000602082019050818103600083015261099a8184610887565b90509291505056fea2646970667358221220902600c8bd987bfc08e283fc96d480f42044c0f25b89d63164609acc3efabdf664736f6c63430008110033",
  "linkReferences": {},
  "deployedLinkReferences": {}
}